{
  "_format": "hh-sol-artifact-1",
  "contractName": "new_contract",
  "sourceName": "contracts/new_contract.sol",
  "abi": [
    {
      "inputs": [
        {
          "internalType": "uint256",
          "name": "amountA",
          "type": "uint256"
        },
        {
          "internalType": "uint256",
          "name": "amountB",
          "type": "uint256"
        }
      ],
      "name": "addLiquidity",
      "outputs": [
        {
          "internalType": "uint256",
          "name": "shares",
          "type": "uint256"
        }
      ],
      "stateMutability": "nonpayable",
      "type": "function"
    },
    {
      "inputs": [
        {
          "internalType": "address",
          "name": "",
          "type": "address"
        }
      ],
      "name": "liquidity",
      "outputs": [
        {
          "internalType": "uint256",
          "name": "",
          "type": "uint256"
        }
      ],
      "stateMutability": "view",
      "type": "function"
    },
    {
      "inputs": [
        {
          "internalType": "uint256",
          "name": "shares",
          "type": "uint256"
        }
      ],
      "name": "removeLiquidity",
      "outputs": [
        {
          "internalType": "uint256",
          "name": "amountA",
          "type": "uint256"
        },
        {
          "internalType": "uint256",
          "name": "amountB",
          "type": "uint256"
        }
      ],
      "stateMutability": "nonpayable",
      "type": "function"
    },
    {
      "inputs": [],
      "name": "reserveA",
      "outputs": [
        {
          "internalType": "uint256",
          "name": "",
          "type": "uint256"
        }
      ],
      "stateMutability": "view",
      "type": "function"
    },
    {
      "inputs": [],
      "name": "reserveB",
      "outputs": [
        {
          "internalType": "uint256",
          "name": "",
          "type": "uint256"
        }
      ],
      "stateMutability": "view",
      "type": "function"
    },
    {
      "inputs": [
        {
          "internalType": "uint256",
          "name": "amountIn",
          "type": "uint256"
        },
        {
          "internalType": "address",
          "name": "tokenIn",
          "type": "address"
        }
      ],
      "name": "swap",
      "outputs": [
        {
          "internalType": "uint256",
          "name": "amountOut",
          "type": "uint256"
        }
      ],
      "stateMutability": "nonpayable",
      "type": "function"
    },
    {
      "inputs": [],
      "name": "tokenA",
      "outputs": [
        {
          "internalType": "address",
          "name": "",
          "type": "address"
        }
      ],
      "stateMutability": "view",
      "type": "function"
    },
    {
      "inputs": [],
      "name": "tokenB",
      "outputs": [
        {
          "internalType": "address",
          "name": "",
          "type": "address"
        }
      ],
      "stateMutability": "view",
      "type": "function"
    },
    {
      "inputs": [],
      "name": "totalSupply",
      "outputs": [
        {
          "internalType": "uint256",
          "name": "",
          "type": "uint256"
        }
      ],
      "stateMutability": "view",
      "type": "function"
    }
  ],
  "bytecode": "0x608060405234801561001057600080fd5b50610bde806100206000396000f3fe608060405234801561001057600080fd5b50600436106100935760003560e01c80639c8f9f23116100665780639c8f9f23146101105780639cd441da14610141578063b8c876b114610171578063d3986f08146101a1578063dc5fa6c5146101d157610093565b80630fc63d101461009857806318160ddd146100b657806319e36f3b146100d45780635f64b55b146100f2575b600080fd5b6100a06101ef565b6040516100ad919061076b565b60405180910390f35b6100be610215565b6040516100cb919061079f565b60405180910390f35b6100dc61021b565b6040516100e9919061079f565b60405180910390f35b6100fa610221565b604051610107919061076b565b60405180910390f35b61012a600480360381019061012591906107eb565b610247565b604051610138929190610818565b60405180910390f35b61015b60048036038101906101569190610841565b6103ab565b604051610168919061079f565b60405180910390f35b61018b600480360381019061018691906108ad565b6104e8565b604051610198919061079f565b60405180910390f35b6101bb60048036038101906101b691906108da565b610500565b6040516101c8919061079f565b60405180910390f35b6101d9610724565b6040516101e6919061079f565b60405180910390f35b600460009054906101000a900473ffffffffffffffffffffffffffffffffffffffff1681565b60035481565b60015481565b600560009054906101000a900473ffffffffffffffffffffffffffffffffffffffff1681565b600080600260003373ffffffffffffffffffffffffffffffffffffffff1673ffffffffffffffffffffffffffffffffffffffff168152602001908152602001600020548311156102cc576040517f08c379a00000000000000000000000000000000000000000000000000000000081526004016102c390610977565b60405180910390fd5b600354600054846102dd91906109c6565b6102e79190610a37565b9150600354600154846102fa91906109c6565b6103049190610a37565b9050816000808282546103179190610a68565b9250508190555080600160008282546103309190610a68565b9250508190555082600360008282546103499190610a68565b9250508190555082600260003373ffffffffffffffffffffffffffffffffffffffff1673ffffffffffffffffffffffffffffffffffffffff168152602001908152602001600020600082825461039f9190610a68565b92505081905550915091565b600080600354036103c95781836103c29190610a9c565b90506103ff565b6001546000546103d99190610a9c565b60035483856103e89190610a9c565b6103f291906109c6565b6103fc9190610a37565b90505b60008111610442576040517f08c379a000000000000000000000000000000000000000000000000000000000815260040161043990610b1c565b60405180910390fd5b826000808282546104539190610a9c565b92505081905550816001600082825461046c9190610a9c565b9250508190555080600360008282546104859190610a9c565b9250508190555080600260003373ffffffffffffffffffffffffffffffffffffffff1673ffffffffffffffffffffffffffffffffffffffff16815260200190815260200160002060008282546104db9190610a9c565b9250508190555092915050565b60026020528060005260406000206000915090505481565b6000600460009054906101000a900473ffffffffffffffffffffffffffffffffffffffff1673ffffffffffffffffffffffffffffffffffffffff168273ffffffffffffffffffffffffffffffffffffffff1614806105ab5750600560009054906101000a900473ffffffffffffffffffffffffffffffffffffffff1673ffffffffffffffffffffffffffffffffffffffff168273ffffffffffffffffffffffffffffffffffffffff16145b6105ea576040517f08c379a00000000000000000000000000000000000000000000000000000000081526004016105e190610b88565b60405180910390fd5b6000600460009054906101000a900473ffffffffffffffffffffffffffffffffffffffff1673ffffffffffffffffffffffffffffffffffffffff168373ffffffffffffffffffffffffffffffffffffffff161490506000808261065257600154600054610659565b6000546001545b9150915060006103e58761066d91906109c6565b90506000828261067d91906109c6565b90506000826103e88661069091906109c6565b61069a9190610a9c565b905080826106a89190610a37565b965085156106e657886000808282546106c19190610a9c565b9250508190555086600160008282546106da9190610a68565b92505081905550610718565b88600160008282546106f89190610a9c565b92505081905550866000808282546107109190610a68565b925050819055505b50505050505092915050565b60005481565b600073ffffffffffffffffffffffffffffffffffffffff82169050919050565b60006107558261072a565b9050919050565b6107658161074a565b82525050565b6000602082019050610780600083018461075c565b92915050565b6000819050919050565b61079981610786565b82525050565b60006020820190506107b46000830184610790565b92915050565b600080fd5b6107c881610786565b81146107d357600080fd5b50565b6000813590506107e5816107bf565b92915050565b600060208284031215610801576108006107ba565b5b600061080f848285016107d6565b91505092915050565b600060408201905061082d6000830185610790565b61083a6020830184610790565b9392505050565b60008060408385031215610858576108576107ba565b5b6000610866858286016107d6565b9250506020610877858286016107d6565b9150509250929050565b61088a8161074a565b811461089557600080fd5b50565b6000813590506108a781610881565b92915050565b6000602082840312156108c3576108c26107ba565b5b60006108d184828501610898565b91505092915050565b600080604083850312156108f1576108f06107ba565b5b60006108ff858286016107d6565b925050602061091085828601610898565b9150509250929050565b600082825260208201905092915050565b7f4e6f7420656e6f756768206c6971756964697479000000000000000000000000600082015250565b600061096160148361091a565b915061096c8261092b565b602082019050919050565b6000602082019050818103600083015261099081610954565b9050919050565b7f4e487b7100000000000000000000000000000000000000000000000000000000600052601160045260246000fd5b60006109d182610786565b91506109dc83610786565b92508282026109ea81610786565b91508282048414831517610a0157610a00610997565b5b5092915050565b7f4e487b7100000000000000000000000000000000000000000000000000000000600052601260045260246000fd5b6000610a4282610786565b9150610a4d83610786565b925082610a5d57610a5c610a08565b5b828204905092915050565b6000610a7382610786565b9150610a7e83610786565b9250828203905081811115610a9657610a95610997565b5b92915050565b6000610aa782610786565b9150610ab283610786565b9250828201905080821115610aca57610ac9610997565b5b92915050565b7f496e76616c6964206c69717569646974792070726f7669646564000000000000600082015250565b6000610b06601a8361091a565b9150610b1182610ad0565b602082019050919050565b60006020820190508181036000830152610b3581610af9565b9050919050565b7f496e76616c696420746f6b656e20616464726573730000000000000000000000600082015250565b6000610b7260158361091a565b9150610b7d82610b3c565b602082019050919050565b60006020820190508181036000830152610ba181610b65565b905091905056fea2646970667358221220b69da7e78301b8bb34668e372dfd85adaa9b065c6dea8f1e42916ec39125a07d64736f6c63430008110033",
  "linkReferences": {},
  "deployedLinkReferences": {}
}